{
  "_format": "hh-sol-artifact-1",
  "contractName": "DiamondCutFacet",
  "sourceName": "contracts/facets/DiamondCut.sol",
  "abi": [
    {
      "anonymous": false,
      "inputs": [
        {
          "components": [
            {
              "internalType": "address",
              "name": "facetAddress",
              "type": "address"
            },
            {
              "internalType": "enum IDiamondCut.FacetCutAction",
              "name": "action",
              "type": "uint8"
            },
            {
              "internalType": "bytes4[]",
              "name": "functionSelectors",
              "type": "bytes4[]"
            }
          ],
          "indexed": false,
          "internalType": "struct IDiamondCut.FacetCut[]",
          "name": "_diamondCut",
          "type": "tuple[]"
        },
        {
          "indexed": false,
          "internalType": "address",
          "name": "_init",
          "type": "address"
        },
        {
          "indexed": false,
          "internalType": "bytes",
          "name": "_calldata",
          "type": "bytes"
        }
      ],
      "name": "DiamondCut",
      "type": "event"
    },
    {
      "inputs": [
        {
          "components": [
            {
              "internalType": "address",
              "name": "facetAddress",
              "type": "address"
            },
            {
              "internalType": "enum IDiamondCut.FacetCutAction",
              "name": "action",
              "type": "uint8"
            },
            {
              "internalType": "bytes4[]",
              "name": "functionSelectors",
              "type": "bytes4[]"
            }
          ],
          "internalType": "struct IDiamondCut.FacetCut[]",
          "name": "_diamondCut",
          "type": "tuple[]"
        },
        {
          "internalType": "address",
          "name": "_init",
          "type": "address"
        },
        {
          "internalType": "bytes",
          "name": "_calldata",
          "type": "bytes"
        }
      ],
      "name": "diamondCut",
      "outputs": [],
      "stateMutability": "nonpayable",
      "type": "function"
    },
    {
      "inputs": [],
      "name": "initialize",
      "outputs": [],
      "stateMutability": "nonpayable",
      "type": "function"
    }
  ],
  "bytecode": "0x608060405234801561001057600080fd5b5061256b806100206000396000f3fe608060405234801561001057600080fd5b50600436106100365760003560e01c80631f931c1c1461003b5780638129fc1c14610057575b600080fd5b61005560048036038101906100509190611405565b610061565b005b61005f6102bf565b005b6100696104b4565b600061007361054f565b905060008160020160009054906101000a900461ffff1661ffff16905060008190506000806007831611156100bf57836001016000600384901c81526020019081526020016000205490505b60005b898990508110156101d4576101b983838c8c858181106100e5576100e461149a565b5b90506020028101906100f791906114d8565b60000160208101906101099190611500565b8d8d8681811061011c5761011b61149a565b5b905060200281019061012e91906114d8565b60200160208101906101409190611552565b8e8e878181106101535761015261149a565b5b905060200281019061016591906114d8565b8060400190610174919061157f565b80806020026020016040519081016040528093929190818152602001838360200280828437600081840152601f19601f8201169050808301925050505050505061057c565b809350819450505080806101cc9061161b565b9150506100c2565b508282146101fc57818460020160006101000a81548161ffff021916908361ffff1602179055505b60006007831611156102275780846001016000600385901c8152602001908152602001600020819055505b7f8faa70878671ccd212d20771b795c50af8fd3ff6cf27f4bde57e5d4de0aeb673898989898960405161025e959493929190611a54565b60405180910390a16102b48787878080601f016020809104026020016040519081016040528093929190818152602001838380828437600081840152601f19601f8201169050808301925050505050505061107d565b505050505050505050565b60006102c961054f565b90503373ffffffffffffffffffffffffffffffffffffffff168160040160009054906101000a900473ffffffffffffffffffffffffffffffffffffffff1673ffffffffffffffffffffffffffffffffffffffff161461035d576040517f08c379a000000000000000000000000000000000000000000000000000000000815260040161035490611afa565b60405180910390fd5b600015158160030160007f1f931c1c000000000000000000000000000000000000000000000000000000007bffffffffffffffffffffffffffffffffffffffffffffffffffffffff19167bffffffffffffffffffffffffffffffffffffffffffffffffffffffff1916815260200190815260200160002060009054906101000a900460ff1615151415610425576040517f08c379a000000000000000000000000000000000000000000000000000000000815260040161041c90611b66565b60405180910390fd5b60018160030160007f1f931c1c000000000000000000000000000000000000000000000000000000007bffffffffffffffffffffffffffffffffffffffffffffffffffffffff19167bffffffffffffffffffffffffffffffffffffffffffffffffffffffff1916815260200190815260200160002060006101000a81548160ff02191690831515021790555050565b6104bc61054f565b60040160009054906101000a900473ffffffffffffffffffffffffffffffffffffffff1673ffffffffffffffffffffffffffffffffffffffff163373ffffffffffffffffffffffffffffffffffffffff161461054d576040517f08c379a000000000000000000000000000000000000000000000000000000000815260040161054490611bf8565b60405180910390fd5b565b6000807f2031468f0c30f7087de4da9398818763b546d7f89935fa65485c24ff1df26bf390508091505090565b600080600061058961054f565b905060008451116105cf576040517f08c379a00000000000000000000000000000000000000000000000000000000081526004016105c690611c8a565b60405180910390fd5b600060028111156105e3576105e26116bc565b5b8560028111156105f6576105f56116bc565b5b14156108365761061e866040518060600160405280602481526020016124c260249139611290565b60005b845181101561083057600085828151811061063f5761063e61149a565b5b602002602001015190506000836000016000837bffffffffffffffffffffffffffffffffffffffffffffffffffffffff19167bffffffffffffffffffffffffffffffffffffffffffffffffffffffff19168152602001908152602001600020549050600073ffffffffffffffffffffffffffffffffffffffff168160601c73ffffffffffffffffffffffffffffffffffffffff1614610713576040517f08c379a000000000000000000000000000000000000000000000000000000000815260040161070a90611d1c565b60405180910390fd5b8a60001b8960601b6bffffffffffffffffffffffff191617846000016000847bffffffffffffffffffffffffffffffffffffffffffffffffffffffff19167bffffffffffffffffffffffffffffffffffffffffffffffffffffffff19168152602001908152602001600020819055506000600560078d16901b905080837bffffffffffffffffffffffffffffffffffffffffffffffffffffffff1916901c817fffffffff0000000000000000000000000000000000000000000000000000000060001b901c198c16179a5060e081141561080c578a85600101600060038f901c8152602001908152602001600020819055506000801b9a505b8b806108179061161b565b9c505050505080806108289061161b565b915050610621565b5061106c565b6001600281111561084a576108496116bc565b5b85600281111561085d5761085c6116bc565b5b1415610af7576108858660405180606001604052806028815260200161250e60289139611290565b60005b8451811015610af15760008582815181106108a6576108a561149a565b5b602002602001015190506000836000016000837bffffffffffffffffffffffffffffffffffffffffffffffffffffffff19167bffffffffffffffffffffffffffffffffffffffffffffffffffffffff1916815260200190815260200160002054905060008160601c90503073ffffffffffffffffffffffffffffffffffffffff168173ffffffffffffffffffffffffffffffffffffffff16141561097f576040517f08c379a000000000000000000000000000000000000000000000000000000000815260040161097690611dae565b60405180910390fd5b8973ffffffffffffffffffffffffffffffffffffffff168173ffffffffffffffffffffffffffffffffffffffff1614156109ee576040517f08c379a00000000000000000000000000000000000000000000000000000000081526004016109e590611e40565b60405180910390fd5b600073ffffffffffffffffffffffffffffffffffffffff168173ffffffffffffffffffffffffffffffffffffffff161415610a5e576040517f08c379a0000000000000000000000000000000000000000000000000000000008152600401610a5590611ed2565b60405180910390fd5b8960601b6bffffffffffffffffffffffff19166bffffffffffffffffffffffff60001b831617856000016000857bffffffffffffffffffffffffffffffffffffffffffffffffffffffff19167bffffffffffffffffffffffffffffffffffffffffffffffffffffffff19168152602001908152602001600020819055505050508080610ae99061161b565b915050610888565b5061106b565b600280811115610b0a57610b096116bc565b5b856002811115610b1d57610b1c6116bc565b5b141561102f57600073ffffffffffffffffffffffffffffffffffffffff168673ffffffffffffffffffffffffffffffffffffffff1614610b92576040517f08c379a0000000000000000000000000000000000000000000000000000000008152600401610b8990611f64565b60405180910390fd5b6000600389901c9050600060078a16905060005b865181101561100d576000801b8a1415610be9578280610bc590611f84565b93505083600101600084815260200190815260200160002054995060079150610bf8565b8180610bf490611f84565b9250505b6000806000808a8581518110610c1157610c1061149a565b5b602002602001015190506000886000016000837bffffffffffffffffffffffffffffffffffffffffffffffffffffffff19167bffffffffffffffffffffffffffffffffffffffffffffffffffffffff19168152602001908152602001600020549050600073ffffffffffffffffffffffffffffffffffffffff168160601c73ffffffffffffffffffffffffffffffffffffffff161415610ce6576040517f08c379a0000000000000000000000000000000000000000000000000000000008152600401610cdd90612020565b60405180910390fd5b3073ffffffffffffffffffffffffffffffffffffffff168160601c73ffffffffffffffffffffffffffffffffffffffff161415610d58576040517f08c379a0000000000000000000000000000000000000000000000000000000008152600401610d4f906120b2565b60405180910390fd5b600587901b8f901b9450817bffffffffffffffffffffffffffffffffffffffffffffffffffffffff1916857bffffffffffffffffffffffffffffffffffffffffffffffffffffffff191614610e7557886000016000867bffffffffffffffffffffffffffffffffffffffffffffffffffffffff19167bffffffffffffffffffffffffffffffffffffffffffffffffffffffff19168152602001908152602001600020546bffffffffffffffffffffffff19166bffffffffffffffffffffffff60001b821617896000016000877bffffffffffffffffffffffffffffffffffffffffffffffffffffffff19167bffffffffffffffffffffffffffffffffffffffffffffffffffffffff19168152602001908152602001600020819055505b886000016000837bffffffffffffffffffffffffffffffffffffffffffffffffffffffff19167bffffffffffffffffffffffffffffffffffffffffffffffffffffffff191681526020019081526020016000206000905560008160001c61ffff169050600381901c9450600560078216901b9350505050858214610f7d57600087600101600084815260200190815260200160002054905081847bffffffffffffffffffffffffffffffffffffffffffffffffffffffff1916901c827fffffffff0000000000000000000000000000000000000000000000000000000060001b901c198216179050808860010160008581526020019081526020016000208190555050610fce565b80837bffffffffffffffffffffffffffffffffffffffffffffffffffffffff1916901c817fffffffff0000000000000000000000000000000000000000000000000000000060001b901c198e16179c505b6000851415610ff757866001016000878152602001908152602001600020600090556000801b9c505b50505080806110059061161b565b915050610ba6565b508060088361101c91906120d2565b611026919061212c565b9950505061106a565b6040517f08c379a0000000000000000000000000000000000000000000000000000000008152600401611061906121f4565b60405180910390fd5b5b5b878792509250509550959350505050565b600073ffffffffffffffffffffffffffffffffffffffff168273ffffffffffffffffffffffffffffffffffffffff1614156110fb5760008151146110f6576040517f08c379a00000000000000000000000000000000000000000000000000000000081526004016110ed90612286565b60405180910390fd5b61128c565b600081511161113f576040517f08c379a000000000000000000000000000000000000000000000000000000000815260040161113690612318565b60405180910390fd5b3073ffffffffffffffffffffffffffffffffffffffff168273ffffffffffffffffffffffffffffffffffffffff161461119557611194826040518060600160405280602881526020016124e660289139611290565b5b6000808373ffffffffffffffffffffffffffffffffffffffff16836040516111bd91906123b2565b600060405180830381855af49150503d80600081146111f8576040519150601f19603f3d011682016040523d82523d6000602084013e6111fd565b606091505b5091509150816112895760008151111561124e57806040517f08c379a0000000000000000000000000000000000000000000000000000000008152600401611245919061240d565b60405180910390fd5b6040517f08c379a0000000000000000000000000000000000000000000000000000000008152600401611280906124a1565b60405180910390fd5b50505b5050565b6000823b90506000811182906112dc576040517f08c379a00000000000000000000000000000000000000000000000000000000081526004016112d3919061240d565b60405180910390fd5b50505050565b600080fd5b600080fd5b600080fd5b600080fd5b600080fd5b60008083601f840112611311576113106112ec565b5b8235905067ffffffffffffffff81111561132e5761132d6112f1565b5b60208301915083602082028301111561134a576113496112f6565b5b9250929050565b600073ffffffffffffffffffffffffffffffffffffffff82169050919050565b600061137c82611351565b9050919050565b61138c81611371565b811461139757600080fd5b50565b6000813590506113a981611383565b92915050565b60008083601f8401126113c5576113c46112ec565b5b8235905067ffffffffffffffff8111156113e2576113e16112f1565b5b6020830191508360018202830111156113fe576113fd6112f6565b5b9250929050565b600080600080600060608688031215611421576114206112e2565b5b600086013567ffffffffffffffff81111561143f5761143e6112e7565b5b61144b888289016112fb565b9550955050602061145e8882890161139a565b935050604086013567ffffffffffffffff81111561147f5761147e6112e7565b5b61148b888289016113af565b92509250509295509295909350565b7f4e487b7100000000000000000000000000000000000000000000000000000000600052603260045260246000fd5b600080fd5b600080fd5b600080fd5b6000823560016060038336030381126114f4576114f36114c9565b5b80830191505092915050565b600060208284031215611516576115156112e2565b5b60006115248482850161139a565b91505092915050565b6003811061153a57600080fd5b50565b60008135905061154c8161152d565b92915050565b600060208284031215611568576115676112e2565b5b60006115768482850161153d565b91505092915050565b6000808335600160200384360303811261159c5761159b6114c9565b5b80840192508235915067ffffffffffffffff8211156115be576115bd6114ce565b5b6020830192506020820236038313156115da576115d96114d3565b5b509250929050565b7f4e487b7100000000000000000000000000000000000000000000000000000000600052601160045260246000fd5b6000819050919050565b600061162682611611565b91507fffffffffffffffffffffffffffffffffffffffffffffffffffffffffffffffff821415611659576116586115e2565b5b600182019050919050565b600082825260208201905092915050565b6000819050919050565b600061168e602084018461139a565b905092915050565b61169f81611371565b82525050565b60006116b4602084018461153d565b905092915050565b7f4e487b7100000000000000000000000000000000000000000000000000000000600052602160045260246000fd5b600381106116fc576116fb6116bc565b5b50565b600081905061170d826116eb565b919050565b600061171d826116ff565b9050919050565b61172d81611712565b82525050565b600080fd5b600080fd5b600080fd5b6000808335600160200384360303811261175f5761175e61173d565b5b83810192508235915060208301925067ffffffffffffffff82111561178757611786611733565b5b60208202360384131561179d5761179c611738565b5b509250929050565b600082825260208201905092915050565b6000819050919050565b60007fffffffff0000000000000000000000000000000000000000000000000000000082169050919050565b6117f5816117c0565b82525050565b600061180783836117ec565b60208301905092915050565b61181c816117c0565b811461182757600080fd5b50565b60008135905061183981611813565b92915050565b600061184e602084018461182a565b905092915050565b6000602082019050919050565b600061186f83856117a5565b935061187a826117b6565b8060005b858110156118b357611890828461183f565b61189a88826117fb565b97506118a583611856565b92505060018101905061187e565b5085925050509392505050565b6000606083016118d3600084018461167f565b6118e06000860182611696565b506118ee60208401846116a5565b6118fb6020860182611724565b506119096040840184611742565b858303604087015261191c838284611863565b925050508091505092915050565b600061193683836118c0565b905092915050565b60008235600160600383360303811261195a5761195961173d565b5b82810191505092915050565b6000602082019050919050565b600061197f8385611664565b93508360208402850161199184611675565b8060005b878110156119d55784840389526119ac828461193e565b6119b6858261192a565b94506119c183611966565b925060208a01995050600181019050611995565b50829750879450505050509392505050565b6119f081611371565b82525050565b600082825260208201905092915050565b82818337600083830152505050565b6000601f19601f8301169050919050565b6000611a3383856119f6565b9350611a40838584611a07565b611a4983611a16565b840190509392505050565b60006060820190508181036000830152611a6f818789611973565b9050611a7e60208301866119e7565b8181036040830152611a91818486611a27565b90509695505050505050565b600082825260208201905092915050565b7f796f75206d757374206265206f776e6572206f6620636f6e7472616374000000600082015250565b6000611ae4601d83611a9d565b9150611aef82611aae565b602082019050919050565b60006020820190508181036000830152611b1381611ad7565b9050919050565b7f416c726561647920696e697469616c697a656400000000000000000000000000600082015250565b6000611b50601383611a9d565b9150611b5b82611b1a565b602082019050919050565b60006020820190508181036000830152611b7f81611b43565b9050919050565b7f4c69624469616d6f6e643a204d75737420626520636f6e7472616374206f776e60008201527f6572000000000000000000000000000000000000000000000000000000000000602082015250565b6000611be2602283611a9d565b9150611bed82611b86565b604082019050919050565b60006020820190508181036000830152611c1181611bd5565b9050919050565b7f4c69624469616d6f6e644375743a204e6f2073656c6563746f727320696e206660008201527f6163657420746f20637574000000000000000000000000000000000000000000602082015250565b6000611c74602b83611a9d565b9150611c7f82611c18565b604082019050919050565b60006020820190508181036000830152611ca381611c67565b9050919050565b7f4c69624469616d6f6e644375743a2043616e2774206164642066756e6374696f60008201527f6e207468617420616c7265616479206578697374730000000000000000000000602082015250565b6000611d06603583611a9d565b9150611d1182611caa565b604082019050919050565b60006020820190508181036000830152611d3581611cf9565b9050919050565b7f4c69624469616d6f6e644375743a2043616e2774207265706c61636520696d6d60008201527f757461626c652066756e6374696f6e0000000000000000000000000000000000602082015250565b6000611d98602f83611a9d565b9150611da382611d3c565b604082019050919050565b60006020820190508181036000830152611dc781611d8b565b9050919050565b7f4c69624469616d6f6e644375743a2043616e2774207265706c6163652066756e60008201527f6374696f6e20776974682073616d652066756e6374696f6e0000000000000000602082015250565b6000611e2a603883611a9d565b9150611e3582611dce565b604082019050919050565b60006020820190508181036000830152611e5981611e1d565b9050919050565b7f4c69624469616d6f6e644375743a2043616e2774207265706c6163652066756e60008201527f6374696f6e207468617420646f65736e27742065786973740000000000000000602082015250565b6000611ebc603883611a9d565b9150611ec782611e60565b604082019050919050565b60006020820190508181036000830152611eeb81611eaf565b9050919050565b7f4c69624469616d6f6e644375743a2052656d6f7665206661636574206164647260008201527f657373206d757374206265206164647265737328302900000000000000000000602082015250565b6000611f4e603683611a9d565b9150611f5982611ef2565b604082019050919050565b60006020820190508181036000830152611f7d81611f41565b9050919050565b6000611f8f82611611565b91506000821415611fa357611fa26115e2565b5b600182039050919050565b7f4c69624469616d6f6e644375743a2043616e27742072656d6f76652066756e6360008201527f74696f6e207468617420646f65736e2774206578697374000000000000000000602082015250565b600061200a603783611a9d565b915061201582611fae565b604082019050919050565b6000602082019050818103600083015261203981611ffd565b9050919050565b7f4c69624469616d6f6e644375743a2043616e27742072656d6f766520696d6d7560008201527f7461626c652066756e6374696f6e000000000000000000000000000000000000602082015250565b600061209c602e83611a9d565b91506120a782612040565b604082019050919050565b600060208201905081810360008301526120cb8161208f565b9050919050565b60006120dd82611611565b91506120e883611611565b9250817fffffffffffffffffffffffffffffffffffffffffffffffffffffffffffffffff0483118215151615612121576121206115e2565b5b828202905092915050565b600061213782611611565b915061214283611611565b9250827fffffffffffffffffffffffffffffffffffffffffffffffffffffffffffffffff03821115612177576121766115e2565b5b828201905092915050565b7f4c69624469616d6f6e644375743a20496e636f7272656374204661636574437560008201527f74416374696f6e00000000000000000000000000000000000000000000000000602082015250565b60006121de602783611a9d565b91506121e982612182565b604082019050919050565b6000602082019050818103600083015261220d816121d1565b9050919050565b7f4c69624469616d6f6e644375743a205f696e697420697320616464726573732860008201527f3029206275745f63616c6c64617461206973206e6f7420656d70747900000000602082015250565b6000612270603c83611a9d565b915061227b82612214565b604082019050919050565b6000602082019050818103600083015261229f81612263565b9050919050565b7f4c69624469616d6f6e644375743a205f63616c6c6461746120697320656d707460008201527f7920627574205f696e6974206973206e6f742061646472657373283029000000602082015250565b6000612302603d83611a9d565b915061230d826122a6565b604082019050919050565b60006020820190508181036000830152612331816122f5565b9050919050565b600081519050919050565b600081905092915050565b60005b8381101561236c578082015181840152602081019050612351565b8381111561237b576000848401525b50505050565b600061238c82612338565b6123968185612343565b93506123a681856020860161234e565b80840191505092915050565b60006123be8284612381565b915081905092915050565b600081519050919050565b60006123df826123c9565b6123e98185611a9d565b93506123f981856020860161234e565b61240281611a16565b840191505092915050565b6000602082019050818103600083015261242781846123d4565b905092915050565b7f4c69624469616d6f6e644375743a205f696e69742066756e6374696f6e20726560008201527f7665727465640000000000000000000000000000000000000000000000000000602082015250565b600061248b602683611a9d565b91506124968261242f565b604082019050919050565b600060208201905081810360008301526124ba8161247e565b905091905056fe4c69624469616d6f6e644375743a2041646420666163657420686173206e6f20636f64654c69624469616d6f6e644375743a205f696e6974206164647265737320686173206e6f20636f64654c69624469616d6f6e644375743a205265706c61636520666163657420686173206e6f20636f6465a264697066735822122001020ab416aa2a5e9ca7c8c28902b3d35807d604a62eeaf82ca42c434f51fbf264736f6c63430008080033",
  "linkReferences": {},
  "deployedLinkReferences": {}
}