{
  "_format": "hh-sol-artifact-1",
  "contractName": "ERC165Facet",
  "sourceName": "contracts/facets/ERC165.sol",
  "abi": [
    {
      "inputs": [],
      "name": "initialize",
      "outputs": [],
      "stateMutability": "nonpayable",
      "type": "function"
    },
    {
      "inputs": [
        {
          "internalType": "bytes4",
          "name": "interfaceID",
          "type": "bytes4"
        }
      ],
      "name": "supportsInterface",
      "outputs": [
        {
          "internalType": "bool",
          "name": "",
          "type": "bool"
        }
      ],
      "stateMutability": "view",
      "type": "function"
    }
  ],
  "bytecode": "0x608060405234801561001057600080fd5b506104e7806100206000396000f3fe608060405234801561001057600080fd5b50600436106100365760003560e01c806301ffc9a71461003b5780638129fc1c1461006b575b600080fd5b61005560048036038101906100509190610365565b610075565b60405161006291906103ad565b60405180910390f35b6100736100e6565b005b600061007f6102db565b6003016000837bffffffffffffffffffffffffffffffffffffffffffffffffffffffff19167bffffffffffffffffffffffffffffffffffffffffffffffffffffffff1916815260200190815260200160002060009054906101000a900460ff169050919050565b60006100f06102db565b90503373ffffffffffffffffffffffffffffffffffffffff168160040160009054906101000a900473ffffffffffffffffffffffffffffffffffffffff1673ffffffffffffffffffffffffffffffffffffffff1614610184576040517f08c379a000000000000000000000000000000000000000000000000000000000815260040161017b90610425565b60405180910390fd5b600015158160030160007f01ffc9a7000000000000000000000000000000000000000000000000000000007bffffffffffffffffffffffffffffffffffffffffffffffffffffffff19167bffffffffffffffffffffffffffffffffffffffffffffffffffffffff1916815260200190815260200160002060009054906101000a900460ff161515141561024c576040517f08c379a000000000000000000000000000000000000000000000000000000000815260040161024390610491565b60405180910390fd5b60018160030160007f01ffc9a7000000000000000000000000000000000000000000000000000000007bffffffffffffffffffffffffffffffffffffffffffffffffffffffff19167bffffffffffffffffffffffffffffffffffffffffffffffffffffffff1916815260200190815260200160002060006101000a81548160ff02191690831515021790555050565b6000807f2031468f0c30f7087de4da9398818763b546d7f89935fa65485c24ff1df26bf390508091505090565b600080fd5b60007fffffffff0000000000000000000000000000000000000000000000000000000082169050919050565b6103428161030d565b811461034d57600080fd5b50565b60008135905061035f81610339565b92915050565b60006020828403121561037b5761037a610308565b5b600061038984828501610350565b91505092915050565b60008115159050919050565b6103a781610392565b82525050565b60006020820190506103c2600083018461039e565b92915050565b600082825260208201905092915050565b7f796f75206d757374206265206f776e6572206f6620636f6e7472616374000000600082015250565b600061040f601d836103c8565b915061041a826103d9565b602082019050919050565b6000602082019050818103600083015261043e81610402565b9050919050565b7f416c726561647920696e697469616c697a656400000000000000000000000000600082015250565b600061047b6013836103c8565b915061048682610445565b602082019050919050565b600060208201905081810360008301526104aa8161046e565b905091905056fea2646970667358221220a008eecc3a8dba38fbc571512f5c06a30dc48ad443e4fc9415f10cea814343d164736f6c63430008080033",
  "linkReferences": {},
  "deployedLinkReferences": {}
}