{
  "_format": "hh-sol-artifact-1",
  "contractName": "DiamondLoupeFacet",
  "sourceName": "contracts/facets/DiamondLoupe.sol",
  "abi": [
    {
      "inputs": [
        {
          "internalType": "bytes4",
          "name": "_functionSelector",
          "type": "bytes4"
        }
      ],
      "name": "facetAddress",
      "outputs": [
        {
          "internalType": "address",
          "name": "facetAddress_",
          "type": "address"
        }
      ],
      "stateMutability": "view",
      "type": "function"
    },
    {
      "inputs": [],
      "name": "facetAddresses",
      "outputs": [
        {
          "internalType": "address[]",
          "name": "facetAddresses_",
          "type": "address[]"
        }
      ],
      "stateMutability": "view",
      "type": "function"
    },
    {
      "inputs": [
        {
          "internalType": "address",
          "name": "_facet",
          "type": "address"
        }
      ],
      "name": "facetFunctionSelectors",
      "outputs": [
        {
          "internalType": "bytes4[]",
          "name": "_facetFunctionSelectors",
          "type": "bytes4[]"
        }
      ],
      "stateMutability": "view",
      "type": "function"
    },
    {
      "inputs": [],
      "name": "facets",
      "outputs": [
        {
          "components": [
            {
              "internalType": "address",
              "name": "facetAddress",
              "type": "address"
            },
            {
              "internalType": "bytes4[]",
              "name": "functionSelectors",
              "type": "bytes4[]"
            }
          ],
          "internalType": "struct IDiamondLoupe.Facet[]",
          "name": "facets_",
          "type": "tuple[]"
        }
      ],
      "stateMutability": "view",
      "type": "function"
    },
    {
      "inputs": [],
      "name": "initialize",
      "outputs": [],
      "stateMutability": "nonpayable",
      "type": "function"
    },
    {
      "inputs": [
        {
          "internalType": "bytes4",
          "name": "_interfaceId",
          "type": "bytes4"
        }
      ],
      "name": "supportsInterface",
      "outputs": [
        {
          "internalType": "bool",
          "name": "",
          "type": "bool"
        }
      ],
      "stateMutability": "view",
      "type": "function"
    }
  ],
  "bytecode": "0x608060405234801561001057600080fd5b50611323806100206000396000f3fe608060405234801561001057600080fd5b50600436106100625760003560e01c806301ffc9a71461006757806352ef6b2c146100975780637a0ed627146100b55780638129fc1c146100d3578063adfca15e146100dd578063cdffacc61461010d575b600080fd5b610081600480360381019061007c9190610d6e565b61013d565b60405161008e9190610db6565b60405180910390f35b61009f6101b3565b6040516100ac9190610ec1565b60405180910390f35b6100bd61041b565b6040516100ca91906110a0565b60405180910390f35b6100db610983565b005b6100f760048036038101906100f291906110ee565b610a1e565b604051610104919061118a565b60405180910390f35b61012760048036038101906101229190610d6e565b610c48565b60405161013491906111bb565b60405180910390f35b600080610148610cb4565b9050806003016000847bffffffffffffffffffffffffffffffffffffffffffffffffffffffff19167bffffffffffffffffffffffffffffffffffffffffffffffffffffffff1916815260200190815260200160002060009054906101000a900460ff16915050919050565b606060006101bf610cb4565b90508060020160009054906101000a900461ffff1661ffff1667ffffffffffffffff8111156101f1576101f06111d6565b5b60405190808252806020026020018201604052801561021f5781602001602082028036833780820191505090505b50915060008060005b8360020160009054906101000a900461ffff1661ffff1682101561041157600084600101600083815260200190815260200160002054905060005b60088110156103fc5783806102779061123e565b9450508560020160009054906101000a900461ffff1661ffff1684111561029d576103fc565b6000600582901b83901b90506000876000016000837bffffffffffffffffffffffffffffffffffffffffffffffffffffffff19167bffffffffffffffffffffffffffffffffffffffffffffffffffffffff191681526020019081526020016000205460601c90506000805b8881101561037a578a818151811061032357610322611287565b5b602002602001015173ffffffffffffffffffffffffffffffffffffffff168373ffffffffffffffffffffffffffffffffffffffff161415610367576001915061037a565b80806103729061123e565b915050610308565b508015610389575050506103e9565b818a898151811061039d5761039c611287565b5b602002602001019073ffffffffffffffffffffffffffffffffffffffff16908173ffffffffffffffffffffffffffffffffffffffff168152505087806103e29061123e565b9850505050505b80806103f49061123e565b915050610263565b505080806104099061123e565b915050610228565b5081845250505090565b60606000610427610cb4565b90508060020160009054906101000a900461ffff1661ffff1667ffffffffffffffff811115610459576104586111d6565b5b60405190808252806020026020018201604052801561049257816020015b61047f610ce1565b8152602001906001900390816104775790505b50915060008160020160009054906101000a900461ffff1661ffff1667ffffffffffffffff8111156104c7576104c66111d6565b5b6040519080825280602002602001820160405280156104f55781602001602082028036833780820191505090505b50905060008060005b8460020160009054906101000a900461ffff1661ffff1682101561090f57600085600101600083815260200190815260200160002054905060005b60088110156108fa57838061054d9061123e565b9450508660020160009054906101000a900461ffff1661ffff16841115610573576108fa565b6000600582901b83901b90506000886000016000837bffffffffffffffffffffffffffffffffffffffffffffffffffffffff19167bffffffffffffffffffffffffffffffffffffffffffffffffffffffff191681526020019081526020016000205460601c90506000805b8881101561074b578273ffffffffffffffffffffffffffffffffffffffff168c82815181106106105761060f611287565b5b60200260200101516000015173ffffffffffffffffffffffffffffffffffffffff16141561073857838c828151811061064c5761064b611287565b5b6020026020010151602001518b838151811061066b5761066a611287565b5b602002602001015160ff168151811061068757610686611287565b5b60200260200101907bffffffffffffffffffffffffffffffffffffffffffffffffffffffff191690817bffffffffffffffffffffffffffffffffffffffffffffffffffffffff19168152505060ff8a82815181106106e8576106e7611287565b5b602002602001015160ff16106106fd57600080fd5b8981815181106107105761070f611287565b5b602002602001018051809190610725906112c3565b60ff1660ff16815250506001915061074b565b80806107439061123e565b9150506105de565b50801561075a575050506108e7565b818b898151811061076e5761076d611287565b5b60200260200101516000019073ffffffffffffffffffffffffffffffffffffffff16908173ffffffffffffffffffffffffffffffffffffffff16815250508960020160009054906101000a900461ffff1661ffff1667ffffffffffffffff8111156107dc576107db6111d6565b5b60405190808252806020026020018201604052801561080a5781602001602082028036833780820191505090505b508b898151811061081e5761081d611287565b5b602002602001015160200181905250828b898151811061084157610840611287565b5b6020026020010151602001516000815181106108605761085f611287565b5b60200260200101907bffffffffffffffffffffffffffffffffffffffffffffffffffffffff191690817bffffffffffffffffffffffffffffffffffffffffffffffffffffffff19168152505060018989815181106108c1576108c0611287565b5b602002602001019060ff16908160ff168152505087806108e09061123e565b9850505050505b80806108f29061123e565b915050610539565b505080806109079061123e565b9150506104fe565b5060005b828110156109785760008482815181106109305761092f611287565b5b602002602001015160ff169050600087838151811061095257610951611287565b5b6020026020010151602001519050818152505080806109709061123e565b915050610913565b508185525050505090565b600061098d610cb4565b905060018160030160007f48e2b093000000000000000000000000000000000000000000000000000000007bffffffffffffffffffffffffffffffffffffffffffffffffffffffff19167bffffffffffffffffffffffffffffffffffffffffffffffffffffffff1916815260200190815260200160002060006101000a81548160ff02191690831515021790555050565b60606000610a2a610cb4565b905060008160020160009054906101000a900461ffff1661ffff1667ffffffffffffffff811115610a5e57610a5d6111d6565b5b604051908082528060200260200182016040528015610a8c5781602001602082028036833780820191505090505b5092506000805b8360020160009054906101000a900461ffff1661ffff16821015610c3c57600084600101600083815260200190815260200160002054905060005b6008811015610c27578380610ae29061123e565b9450508560020160009054906101000a900461ffff1661ffff16841115610b0857610c27565b6000600582901b83901b90506000876000016000837bffffffffffffffffffffffffffffffffffffffffffffffffffffffff19167bffffffffffffffffffffffffffffffffffffffffffffffffffffffff191681526020019081526020016000205460601c90508073ffffffffffffffffffffffffffffffffffffffff168a73ffffffffffffffffffffffffffffffffffffffff161415610c125781898881518110610bb757610bb6611287565b5b60200260200101907bffffffffffffffffffffffffffffffffffffffffffffffffffffffff191690817bffffffffffffffffffffffffffffffffffffffffffffffffffffffff1916815250508680610c0e9061123e565b9750505b50508080610c1f9061123e565b915050610ace565b50508080610c349061123e565b915050610a93565b50818452505050919050565b600080610c53610cb4565b9050806000016000847bffffffffffffffffffffffffffffffffffffffffffffffffffffffff19167bffffffffffffffffffffffffffffffffffffffffffffffffffffffff191681526020019081526020016000205460601c915050919050565b6000807f2031468f0c30f7087de4da9398818763b546d7f89935fa65485c24ff1df26bf390508091505090565b6040518060400160405280600073ffffffffffffffffffffffffffffffffffffffff168152602001606081525090565b600080fd5b60007fffffffff0000000000000000000000000000000000000000000000000000000082169050919050565b610d4b81610d16565b8114610d5657600080fd5b50565b600081359050610d6881610d42565b92915050565b600060208284031215610d8457610d83610d11565b5b6000610d9284828501610d59565b91505092915050565b60008115159050919050565b610db081610d9b565b82525050565b6000602082019050610dcb6000830184610da7565b92915050565b600081519050919050565b600082825260208201905092915050565b6000819050602082019050919050565b600073ffffffffffffffffffffffffffffffffffffffff82169050919050565b6000610e2882610dfd565b9050919050565b610e3881610e1d565b82525050565b6000610e4a8383610e2f565b60208301905092915050565b6000602082019050919050565b6000610e6e82610dd1565b610e788185610ddc565b9350610e8383610ded565b8060005b83811015610eb4578151610e9b8882610e3e565b9750610ea683610e56565b925050600181019050610e87565b5085935050505092915050565b60006020820190508181036000830152610edb8184610e63565b905092915050565b600081519050919050565b600082825260208201905092915050565b6000819050602082019050919050565b600081519050919050565b600082825260208201905092915050565b6000819050602082019050919050565b610f4481610d16565b82525050565b6000610f568383610f3b565b60208301905092915050565b6000602082019050919050565b6000610f7a82610f0f565b610f848185610f1a565b9350610f8f83610f2b565b8060005b83811015610fc0578151610fa78882610f4a565b9750610fb283610f62565b925050600181019050610f93565b5085935050505092915050565b6000604083016000830151610fe56000860182610e2f565b5060208301518482036020860152610ffd8282610f6f565b9150508091505092915050565b60006110168383610fcd565b905092915050565b6000602082019050919050565b600061103682610ee3565b6110408185610eee565b93508360208202850161105285610eff565b8060005b8581101561108e578484038952815161106f858261100a565b945061107a8361101e565b925060208a01995050600181019050611056565b50829750879550505050505092915050565b600060208201905081810360008301526110ba818461102b565b905092915050565b6110cb81610e1d565b81146110d657600080fd5b50565b6000813590506110e8816110c2565b92915050565b60006020828403121561110457611103610d11565b5b6000611112848285016110d9565b91505092915050565b600082825260208201905092915050565b600061113782610f0f565b611141818561111b565b935061114c83610f2b565b8060005b8381101561117d5781516111648882610f4a565b975061116f83610f62565b925050600181019050611150565b5085935050505092915050565b600060208201905081810360008301526111a4818461112c565b905092915050565b6111b581610e1d565b82525050565b60006020820190506111d060008301846111ac565b92915050565b7f4e487b7100000000000000000000000000000000000000000000000000000000600052604160045260246000fd5b7f4e487b7100000000000000000000000000000000000000000000000000000000600052601160045260246000fd5b6000819050919050565b600061124982611234565b91507fffffffffffffffffffffffffffffffffffffffffffffffffffffffffffffffff82141561127c5761127b611205565b5b600182019050919050565b7f4e487b7100000000000000000000000000000000000000000000000000000000600052603260045260246000fd5b600060ff82169050919050565b60006112ce826112b6565b915060ff8214156112e2576112e1611205565b5b60018201905091905056fea264697066735822122009a19e5c6dd9cbc4631ed08dfc1b806bb860d12461c96fe21bff675a11eda36764736f6c63430008080033",
  "linkReferences": {},
  "deployedLinkReferences": {}
}