{
  "_format": "hh-sol-artifact-1",
  "contractName": "ERC20Facet",
  "sourceName": "contracts/facets/ERC20.sol",
  "abi": [
    {
      "anonymous": false,
      "inputs": [
        {
          "indexed": true,
          "internalType": "address",
          "name": "_owner",
          "type": "address"
        },
        {
          "indexed": true,
          "internalType": "address",
          "name": "_spender",
          "type": "address"
        },
        {
          "indexed": false,
          "internalType": "uint256",
          "name": "_value",
          "type": "uint256"
        }
      ],
      "name": "Approval",
      "type": "event"
    },
    {
      "anonymous": false,
      "inputs": [
        {
          "indexed": true,
          "internalType": "address",
          "name": "_from",
          "type": "address"
        },
        {
          "indexed": true,
          "internalType": "address",
          "name": "_to",
          "type": "address"
        },
        {
          "indexed": false,
          "internalType": "uint256",
          "name": "_value",
          "type": "uint256"
        }
      ],
      "name": "Transfer",
      "type": "event"
    },
    {
      "inputs": [
        {
          "internalType": "address",
          "name": "_owner",
          "type": "address"
        },
        {
          "internalType": "address",
          "name": "_spender",
          "type": "address"
        }
      ],
      "name": "allowance",
      "outputs": [
        {
          "internalType": "uint256",
          "name": "remaining",
          "type": "uint256"
        }
      ],
      "stateMutability": "view",
      "type": "function"
    },
    {
      "inputs": [
        {
          "internalType": "address",
          "name": "_spender",
          "type": "address"
        },
        {
          "internalType": "uint256",
          "name": "_value",
          "type": "uint256"
        }
      ],
      "name": "approve",
      "outputs": [
        {
          "internalType": "bool",
          "name": "success",
          "type": "bool"
        }
      ],
      "stateMutability": "nonpayable",
      "type": "function"
    },
    {
      "inputs": [
        {
          "internalType": "address",
          "name": "_owner",
          "type": "address"
        }
      ],
      "name": "balanceOf",
      "outputs": [
        {
          "internalType": "uint256",
          "name": "balance",
          "type": "uint256"
        }
      ],
      "stateMutability": "view",
      "type": "function"
    },
    {
      "inputs": [],
      "name": "decimals",
      "outputs": [
        {
          "internalType": "uint8",
          "name": "",
          "type": "uint8"
        }
      ],
      "stateMutability": "pure",
      "type": "function"
    },
    {
      "inputs": [
        {
          "internalType": "string",
          "name": "_name",
          "type": "string"
        },
        {
          "internalType": "string",
          "name": "_symbol",
          "type": "string"
        },
        {
          "internalType": "uint256",
          "name": "_initSupply",
          "type": "uint256"
        },
        {
          "internalType": "uint256",
          "name": "_maxSupply",
          "type": "uint256"
        }
      ],
      "name": "initialize",
      "outputs": [],
      "stateMutability": "nonpayable",
      "type": "function"
    },
    {
      "inputs": [
        {
          "internalType": "address",
          "name": "_account",
          "type": "address"
        },
        {
          "internalType": "uint256",
          "name": "_amount",
          "type": "uint256"
        }
      ],
      "name": "mint",
      "outputs": [],
      "stateMutability": "nonpayable",
      "type": "function"
    },
    {
      "inputs": [],
      "name": "name",
      "outputs": [
        {
          "internalType": "string",
          "name": "",
          "type": "string"
        }
      ],
      "stateMutability": "view",
      "type": "function"
    },
    {
      "inputs": [],
      "name": "symbol",
      "outputs": [
        {
          "internalType": "string",
          "name": "",
          "type": "string"
        }
      ],
      "stateMutability": "view",
      "type": "function"
    },
    {
      "inputs": [],
      "name": "totalSupply",
      "outputs": [
        {
          "internalType": "uint256",
          "name": "",
          "type": "uint256"
        }
      ],
      "stateMutability": "view",
      "type": "function"
    },
    {
      "inputs": [
        {
          "internalType": "address",
          "name": "_to",
          "type": "address"
        },
        {
          "internalType": "uint256",
          "name": "_value",
          "type": "uint256"
        }
      ],
      "name": "transfer",
      "outputs": [
        {
          "internalType": "bool",
          "name": "success",
          "type": "bool"
        }
      ],
      "stateMutability": "nonpayable",
      "type": "function"
    },
    {
      "inputs": [
        {
          "internalType": "address",
          "name": "_from",
          "type": "address"
        },
        {
          "internalType": "address",
          "name": "_to",
          "type": "address"
        },
        {
          "internalType": "uint256",
          "name": "_value",
          "type": "uint256"
        }
      ],
      "name": "transferFrom",
      "outputs": [
        {
          "internalType": "bool",
          "name": "success",
          "type": "bool"
        }
      ],
      "stateMutability": "nonpayable",
      "type": "function"
    }
  ],
  "bytecode": "0x608060405234801561001057600080fd5b50611ac7806100206000396000f3fe608060405234801561001057600080fd5b50600436106100a95760003560e01c806340c10f191161007157806340c10f19146101685780636fe0e3951461018457806370a08231146101a057806395d89b41146101d0578063a9059cbb146101ee578063dd62ed3e1461021e576100a9565b806306fdde03146100ae578063095ea7b3146100cc57806318160ddd146100fc57806323b872dd1461011a578063313ce5671461014a575b600080fd5b6100b661024e565b6040516100c39190611044565b60405180910390f35b6100e660048036038101906100e1919061110e565b6102e9565b6040516100f39190611169565b60405180910390f35b610104610366565b6040516101119190611193565b60405180910390f35b610134600480360381019061012f91906111ae565b610379565b6040516101419190611169565b60405180910390f35b6101526103f7565b60405161015f919061121d565b60405180910390f35b610182600480360381019061017d919061110e565b610406565b005b61019e6004803603810190610199919061136d565b610549565b005b6101ba60048036038101906101b5919061140c565b6107b4565b6040516101c79190611193565b60405180910390f35b6101d86107c6565b6040516101e59190611044565b60405180910390f35b6102086004803603810190610203919061110e565b610861565b6040516102159190611169565b60405180910390f35b61023860048036038101906102339190611439565b6108de565b6040516102459190611193565b60405180910390f35b60606102586108f2565b6002018054610266906114a8565b80601f0160208091040260200160405190810160405280929190818152602001828054610292906114a8565b80156102df5780601f106102b4576101008083540402835291602001916102df565b820191906000526020600020905b8154815290600101906020018083116102c257829003601f168201915b5050505050905090565b60006102f633848461091f565b508273ffffffffffffffffffffffffffffffffffffffff163373ffffffffffffffffffffffffffffffffffffffff167f8c5be1e5ebec7d5bd14f71427d1e84f3dd0314c0f7b2291e5b200ac8c7c3b925846040516103549190611193565b60405180910390a36001905092915050565b60006103706108f2565b60040154905090565b6000610386848484610a70565b508273ffffffffffffffffffffffffffffffffffffffff168473ffffffffffffffffffffffffffffffffffffffff167fddf252ad1be2c89b69c2b068fc378daa952ba7f163c4a11628f55a4df523b3ef846040516103e49190611193565b60405180910390a3600190509392505050565b6000610401610a94565b905090565b61040e610a9d565b60040160009054906101000a900473ffffffffffffffffffffffffffffffffffffffff1673ffffffffffffffffffffffffffffffffffffffff163373ffffffffffffffffffffffffffffffffffffffff16148061049657503073ffffffffffffffffffffffffffffffffffffffff163373ffffffffffffffffffffffffffffffffffffffff16145b6104d5576040517f08c379a00000000000000000000000000000000000000000000000000000000081526004016104cc90611526565b60405180910390fd5b6104df8282610aca565b8173ffffffffffffffffffffffffffffffffffffffff16600073ffffffffffffffffffffffffffffffffffffffff167fddf252ad1be2c89b69c2b068fc378daa952ba7f163c4a11628f55a4df523b3ef8360405161053d9190611193565b60405180910390a35050565b60006105536108f2565b9050600061055f610a9d565b90506000826002018054610572906114a8565b90501480156105915750600082600301805461058d906114a8565b9050145b6105d0576040517f08c379a00000000000000000000000000000000000000000000000000000000081526004016105c790611592565b60405180910390fd5b60008651141580156105e457506000855114155b610623576040517f08c379a000000000000000000000000000000000000000000000000000000000815260040161061a906115fe565b60405180910390fd5b8060040160009054906101000a900473ffffffffffffffffffffffffffffffffffffffff1673ffffffffffffffffffffffffffffffffffffffff163373ffffffffffffffffffffffffffffffffffffffff16146106b5576040517f08c379a00000000000000000000000000000000000000000000000000000000081526004016106ac9061166a565b60405180910390fd5b60018160030160007f942e8b22000000000000000000000000000000000000000000000000000000007bffffffffffffffffffffffffffffffffffffffffffffffffffffffff19167bffffffffffffffffffffffffffffffffffffffffffffffffffffffff1916815260200190815260200160002060006101000a81548160ff02191690831515021790555085826002019080519060200190610759929190610f08565b5084826003019080519060200190610772929190610f08565b50670de0b6b3a76400008361078791906116b9565b82600501819055506107ac33670de0b6b3a7640000866107a791906116b9565b610406565b505050505050565b60006107bf82610c14565b9050919050565b60606107d06108f2565b60030180546107de906114a8565b80601f016020809104026020016040519081016040528092919081815260200182805461080a906114a8565b80156108575780601f1061082c57610100808354040283529160200191610857565b820191906000526020600020905b81548152906001019060200180831161083a57829003601f168201915b5050505050905090565b600061086e338484610c66565b508273ffffffffffffffffffffffffffffffffffffffff163373ffffffffffffffffffffffffffffffffffffffff167fddf252ad1be2c89b69c2b068fc378daa952ba7f163c4a11628f55a4df523b3ef846040516108cc9190611193565b60405180910390a36001905092915050565b60006108ea8383610deb565b905092915050565b6000807ffb4e42254fe842d6cba87cbcad0256dca8bfbcdb0e8111c033ad0d13044ec5cc90508091505090565b60008073ffffffffffffffffffffffffffffffffffffffff168373ffffffffffffffffffffffffffffffffffffffff161415610990576040517f08c379a00000000000000000000000000000000000000000000000000000000081526004016109879061175f565b60405180910390fd5b61099984610c14565b8211156109db576040517f08c379a00000000000000000000000000000000000000000000000000000000081526004016109d2906117cb565b60405180910390fd5b816109e46108f2565b60010160008673ffffffffffffffffffffffffffffffffffffffff1673ffffffffffffffffffffffffffffffffffffffff16815260200190815260200160002060008573ffffffffffffffffffffffffffffffffffffffff1673ffffffffffffffffffffffffffffffffffffffff16815260200190815260200160002081905550600190509392505050565b6000610a7d843384610e7b565b610a88848484610c66565b50600190509392505050565b60006012905090565b6000807f2031468f0c30f7087de4da9398818763b546d7f89935fa65485c24ff1df26bf390508091505090565b6000610ad46108f2565b9050600073ffffffffffffffffffffffffffffffffffffffff168373ffffffffffffffffffffffffffffffffffffffff161415610b46576040517f08c379a0000000000000000000000000000000000000000000000000000000008152600401610b3d90611837565b60405180910390fd5b8060050154828260040154610b5b9190611857565b1115610b9c576040517f08c379a0000000000000000000000000000000000000000000000000000000008152600401610b93906118f9565b60405180910390fd5b81816004016000828254610bb09190611857565b92505081905550818160000160008573ffffffffffffffffffffffffffffffffffffffff1673ffffffffffffffffffffffffffffffffffffffff1681526020019081526020016000206000828254610c089190611857565b92505081905550505050565b6000610c1e6108f2565b60000160008373ffffffffffffffffffffffffffffffffffffffff1673ffffffffffffffffffffffffffffffffffffffff168152602001908152602001600020549050919050565b60008073ffffffffffffffffffffffffffffffffffffffff168373ffffffffffffffffffffffffffffffffffffffff161415610cd7576040517f08c379a0000000000000000000000000000000000000000000000000000000008152600401610cce90611965565b60405180910390fd5b610ce084610c14565b821115610d22576040517f08c379a0000000000000000000000000000000000000000000000000000000008152600401610d19906119d1565b60405180910390fd5b81610d2b6108f2565b60000160008673ffffffffffffffffffffffffffffffffffffffff1673ffffffffffffffffffffffffffffffffffffffff1681526020019081526020016000206000828254610d7a91906119f1565b9250508190555081610d8a6108f2565b60000160008573ffffffffffffffffffffffffffffffffffffffff1673ffffffffffffffffffffffffffffffffffffffff1681526020019081526020016000206000828254610dd99190611857565b92505081905550600190509392505050565b6000610df56108f2565b60010160008473ffffffffffffffffffffffffffffffffffffffff1673ffffffffffffffffffffffffffffffffffffffff16815260200190815260200160002060008373ffffffffffffffffffffffffffffffffffffffff1673ffffffffffffffffffffffffffffffffffffffff16815260200190815260200160002054905092915050565b6000610e878484610deb565b90507fffffffffffffffffffffffffffffffffffffffffffffffffffffffffffffffff8114610f025781811015610ef3576040517f08c379a0000000000000000000000000000000000000000000000000000000008152600401610eea90611a71565b60405180910390fd5b610f00848484840361091f565b505b50505050565b828054610f14906114a8565b90600052602060002090601f016020900481019282610f365760008555610f7d565b82601f10610f4f57805160ff1916838001178555610f7d565b82800160010185558215610f7d579182015b82811115610f7c578251825591602001919060010190610f61565b5b509050610f8a9190610f8e565b5090565b5b80821115610fa7576000816000905550600101610f8f565b5090565b600081519050919050565b600082825260208201905092915050565b60005b83811015610fe5578082015181840152602081019050610fca565b83811115610ff4576000848401525b50505050565b6000601f19601f8301169050919050565b600061101682610fab565b6110208185610fb6565b9350611030818560208601610fc7565b61103981610ffa565b840191505092915050565b6000602082019050818103600083015261105e818461100b565b905092915050565b6000604051905090565b600080fd5b600080fd5b600073ffffffffffffffffffffffffffffffffffffffff82169050919050565b60006110a58261107a565b9050919050565b6110b58161109a565b81146110c057600080fd5b50565b6000813590506110d2816110ac565b92915050565b6000819050919050565b6110eb816110d8565b81146110f657600080fd5b50565b600081359050611108816110e2565b92915050565b6000806040838503121561112557611124611070565b5b6000611133858286016110c3565b9250506020611144858286016110f9565b9150509250929050565b60008115159050919050565b6111638161114e565b82525050565b600060208201905061117e600083018461115a565b92915050565b61118d816110d8565b82525050565b60006020820190506111a86000830184611184565b92915050565b6000806000606084860312156111c7576111c6611070565b5b60006111d5868287016110c3565b93505060206111e6868287016110c3565b92505060406111f7868287016110f9565b9150509250925092565b600060ff82169050919050565b61121781611201565b82525050565b6000602082019050611232600083018461120e565b92915050565b600080fd5b600080fd5b7f4e487b7100000000000000000000000000000000000000000000000000000000600052604160045260246000fd5b61127a82610ffa565b810181811067ffffffffffffffff8211171561129957611298611242565b5b80604052505050565b60006112ac611066565b90506112b88282611271565b919050565b600067ffffffffffffffff8211156112d8576112d7611242565b5b6112e182610ffa565b9050602081019050919050565b82818337600083830152505050565b600061131061130b846112bd565b6112a2565b90508281526020810184848401111561132c5761132b61123d565b5b6113378482856112ee565b509392505050565b600082601f83011261135457611353611238565b5b81356113648482602086016112fd565b91505092915050565b6000806000806080858703121561138757611386611070565b5b600085013567ffffffffffffffff8111156113a5576113a4611075565b5b6113b18782880161133f565b945050602085013567ffffffffffffffff8111156113d2576113d1611075565b5b6113de8782880161133f565b93505060406113ef878288016110f9565b9250506060611400878288016110f9565b91505092959194509250565b60006020828403121561142257611421611070565b5b6000611430848285016110c3565b91505092915050565b600080604083850312156114505761144f611070565b5b600061145e858286016110c3565b925050602061146f858286016110c3565b9150509250929050565b7f4e487b7100000000000000000000000000000000000000000000000000000000600052602260045260246000fd5b600060028204905060018216806114c057607f821691505b602082108114156114d4576114d3611479565b5b50919050565b7f4e4f545f414c4c4f574544000000000000000000000000000000000000000000600082015250565b6000611510600b83610fb6565b915061151b826114da565b602082019050919050565b6000602082019050818103600083015261153f81611503565b9050919050565b7f414c52454144595f494e495449414c495a454400000000000000000000000000600082015250565b600061157c601383610fb6565b915061158782611546565b602082019050919050565b600060208201905081810360008301526115ab8161156f565b9050919050565b7f494e56414c49445f504152414d53000000000000000000000000000000000000600082015250565b60006115e8600e83610fb6565b91506115f3826115b2565b602082019050919050565b60006020820190508181036000830152611617816115db565b9050919050565b7f596f75206d757374206265206f776e6572000000000000000000000000000000600082015250565b6000611654601183610fb6565b915061165f8261161e565b602082019050919050565b6000602082019050818103600083015261168381611647565b9050919050565b7f4e487b7100000000000000000000000000000000000000000000000000000000600052601160045260246000fd5b60006116c4826110d8565b91506116cf836110d8565b9250817fffffffffffffffffffffffffffffffffffffffffffffffffffffffffffffffff04831182151516156117085761170761168a565b5b828202905092915050565b7f5370656e6465722061646472657373206973204e554c4c000000000000000000600082015250565b6000611749601783610fb6565b915061175482611713565b602082019050919050565b600060208201905081810360008301526117788161173c565b9050919050565b7f4e6f7420656e6f7567682062616c616e63650000000000000000000000000000600082015250565b60006117b5601283610fb6565b91506117c08261177f565b602082019050919050565b600060208201905081810360008301526117e4816117a8565b9050919050565b7f61646472657373206973204e554c4c0000000000000000000000000000000000600082015250565b6000611821600f83610fb6565b915061182c826117eb565b602082019050919050565b6000602082019050818103600083015261185081611814565b9050919050565b6000611862826110d8565b915061186d836110d8565b9250827fffffffffffffffffffffffffffffffffffffffffffffffffffffffffffffffff038211156118a2576118a161168a565b5b828201905092915050565b7f4d617820737570706c7920697320657863656564000000000000000000000000600082015250565b60006118e3601483610fb6565b91506118ee826118ad565b602082019050919050565b60006020820190508181036000830152611912816118d6565b9050919050565b7f61646472657373206973206e756c6c0000000000000000000000000000000000600082015250565b600061194f600f83610fb6565b915061195a82611919565b602082019050919050565b6000602082019050818103600083015261197e81611942565b9050919050565b7f6e6f7420656e6f7567682062616c616e63650000000000000000000000000000600082015250565b60006119bb601283610fb6565b91506119c682611985565b602082019050919050565b600060208201905081810360008301526119ea816119ae565b9050919050565b60006119fc826110d8565b9150611a07836110d8565b925082821015611a1a57611a1961168a565b5b828203905092915050565b7f45524332303a20696e73756666696369656e7420616c6c6f77616e6365000000600082015250565b6000611a5b601d83610fb6565b9150611a6682611a25565b602082019050919050565b60006020820190508181036000830152611a8a81611a4e565b905091905056fea264697066735822122047aa8e99f205867f28acd62ab152c2dffeff8955ef7551bca3ef029f36498d4364736f6c63430008080033",
  "linkReferences": {},
  "deployedLinkReferences": {}
}