{
  "_format": "hh-sol-artifact-1",
  "contractName": "ERC173",
  "sourceName": "contracts/facets/ERC173.sol",
  "abi": [
    {
      "anonymous": false,
      "inputs": [
        {
          "indexed": true,
          "internalType": "address",
          "name": "previousOwner",
          "type": "address"
        },
        {
          "indexed": true,
          "internalType": "address",
          "name": "newOwner",
          "type": "address"
        }
      ],
      "name": "OwnershipTransferred",
      "type": "event"
    },
    {
      "inputs": [],
      "name": "initialize",
      "outputs": [],
      "stateMutability": "nonpayable",
      "type": "function"
    },
    {
      "inputs": [],
      "name": "owner",
      "outputs": [
        {
          "internalType": "address",
          "name": "",
          "type": "address"
        }
      ],
      "stateMutability": "view",
      "type": "function"
    },
    {
      "inputs": [
        {
          "internalType": "address",
          "name": "_newOwner",
          "type": "address"
        }
      ],
      "name": "transferOwnership",
      "outputs": [],
      "stateMutability": "nonpayable",
      "type": "function"
    }
  ],
  "bytecode": "0x608060405234801561001057600080fd5b506105f9806100206000396000f3fe608060405234801561001057600080fd5b50600436106100415760003560e01c80638129fc1c146100465780638da5cb5b14610050578063f2fde38b1461006e575b600080fd5b61004e61008a565b005b610058610280565b6040516100659190610461565b60405180910390f35b610088600480360381019061008391906104ad565b6102b3565b005b60006100946103f3565b90503373ffffffffffffffffffffffffffffffffffffffff168160040160009054906101000a900473ffffffffffffffffffffffffffffffffffffffff1673ffffffffffffffffffffffffffffffffffffffff161415610129576040517f08c379a000000000000000000000000000000000000000000000000000000000815260040161012090610537565b60405180910390fd5b600015158160030160007f7f5828d0000000000000000000000000000000000000000000000000000000007bffffffffffffffffffffffffffffffffffffffffffffffffffffffff19167bffffffffffffffffffffffffffffffffffffffffffffffffffffffff1916815260200190815260200160002060009054906101000a900460ff16151514156101f1576040517f08c379a00000000000000000000000000000000000000000000000000000000081526004016101e8906105a3565b60405180910390fd5b60018160030160007f7f5828d0000000000000000000000000000000000000000000000000000000007bffffffffffffffffffffffffffffffffffffffffffffffffffffffff19167bffffffffffffffffffffffffffffffffffffffffffffffffffffffff1916815260200190815260200160002060006101000a81548160ff02191690831515021790555050565b600061028a6103f3565b60040160009054906101000a900473ffffffffffffffffffffffffffffffffffffffff16905090565b60006102bd6103f3565b90503373ffffffffffffffffffffffffffffffffffffffff168160040160009054906101000a900473ffffffffffffffffffffffffffffffffffffffff1673ffffffffffffffffffffffffffffffffffffffff161415610352576040517f08c379a000000000000000000000000000000000000000000000000000000000815260040161034990610537565b60405180910390fd5b818160040160006101000a81548173ffffffffffffffffffffffffffffffffffffffff021916908373ffffffffffffffffffffffffffffffffffffffff1602179055508173ffffffffffffffffffffffffffffffffffffffff163373ffffffffffffffffffffffffffffffffffffffff167f8be0079c531659141344cd1fd0a4f28419497f9722a3daafe3b4186f6b6457e060405160405180910390a35050565b6000807f2031468f0c30f7087de4da9398818763b546d7f89935fa65485c24ff1df26bf390508091505090565b600073ffffffffffffffffffffffffffffffffffffffff82169050919050565b600061044b82610420565b9050919050565b61045b81610440565b82525050565b60006020820190506104766000830184610452565b92915050565b600080fd5b61048a81610440565b811461049557600080fd5b50565b6000813590506104a781610481565b92915050565b6000602082840312156104c3576104c261047c565b5b60006104d184828501610498565b91505092915050565b600082825260208201905092915050565b7f596f75206d757374206265204f776e6572000000000000000000000000000000600082015250565b60006105216011836104da565b915061052c826104eb565b602082019050919050565b6000602082019050818103600083015261055081610514565b9050919050565b7f416c726561647920696e697469616c697a650000000000000000000000000000600082015250565b600061058d6012836104da565b915061059882610557565b602082019050919050565b600060208201905081810360008301526105bc81610580565b905091905056fea264697066735822122058e45043399965cad9306bd1eb64a4226584dc71ca2003f25e3a75553c18392164736f6c63430008080033",
  "linkReferences": {},
  "deployedLinkReferences": {}
}